{
  "_format": "hh-sol-artifact-1",
  "contractName": "Polynians",
  "sourceName": "contracts/Polynians.sol",
  "abi": [
    {
      "inputs": [
        {
          "internalType": "string",
          "name": "_uri",
          "type": "string"
        }
      ],
      "stateMutability": "nonpayable",
      "type": "constructor"
    },
    {
      "anonymous": false,
      "inputs": [
        {
          "indexed": true,
          "internalType": "address",
          "name": "account",
          "type": "address"
        },
        {
          "indexed": true,
          "internalType": "address",
          "name": "operator",
          "type": "address"
        },
        {
          "indexed": false,
          "internalType": "bool",
          "name": "approved",
          "type": "bool"
        }
      ],
      "name": "ApprovalForAll",
      "type": "event"
    },
    {
      "anonymous": false,
      "inputs": [
        {
          "indexed": true,
          "internalType": "address",
          "name": "previousOwner",
          "type": "address"
        },
        {
          "indexed": true,
          "internalType": "address",
          "name": "newOwner",
          "type": "address"
        }
      ],
      "name": "OwnershipTransferred",
      "type": "event"
    },
    {
      "anonymous": false,
      "inputs": [
        {
          "indexed": false,
          "internalType": "bool",
          "name": "_status",
          "type": "bool"
        }
      ],
      "name": "SaleIsActive",
      "type": "event"
    },
    {
      "anonymous": false,
      "inputs": [
        {
          "indexed": true,
          "internalType": "address",
          "name": "operator",
          "type": "address"
        },
        {
          "indexed": true,
          "internalType": "address",
          "name": "from",
          "type": "address"
        },
        {
          "indexed": true,
          "internalType": "address",
          "name": "to",
          "type": "address"
        },
        {
          "indexed": false,
          "internalType": "uint256[]",
          "name": "ids",
          "type": "uint256[]"
        },
        {
          "indexed": false,
          "internalType": "uint256[]",
          "name": "values",
          "type": "uint256[]"
        }
      ],
      "name": "TransferBatch",
      "type": "event"
    },
    {
      "anonymous": false,
      "inputs": [
        {
          "indexed": true,
          "internalType": "address",
          "name": "operator",
          "type": "address"
        },
        {
          "indexed": true,
          "internalType": "address",
          "name": "from",
          "type": "address"
        },
        {
          "indexed": true,
          "internalType": "address",
          "name": "to",
          "type": "address"
        },
        {
          "indexed": false,
          "internalType": "uint256",
          "name": "id",
          "type": "uint256"
        },
        {
          "indexed": false,
          "internalType": "uint256",
          "name": "value",
          "type": "uint256"
        }
      ],
      "name": "TransferSingle",
      "type": "event"
    },
    {
      "anonymous": false,
      "inputs": [
        {
          "indexed": false,
          "internalType": "string",
          "name": "value",
          "type": "string"
        },
        {
          "indexed": true,
          "internalType": "uint256",
          "name": "id",
          "type": "uint256"
        }
      ],
      "name": "URI",
      "type": "event"
    },
    {
      "inputs": [],
      "name": "MAX_PER_MINT_PLUS_ONE",
      "outputs": [
        {
          "internalType": "uint256",
          "name": "",
          "type": "uint256"
        }
      ],
      "stateMutability": "view",
      "type": "function"
    },
    {
      "inputs": [],
      "name": "MAX_SUPPLY_PLUS_ONE",
      "outputs": [
        {
          "internalType": "uint256",
          "name": "",
          "type": "uint256"
        }
      ],
      "stateMutability": "view",
      "type": "function"
    },
    {
      "inputs": [],
      "name": "PRICE",
      "outputs": [
        {
          "internalType": "uint256",
          "name": "",
          "type": "uint256"
        }
      ],
      "stateMutability": "view",
      "type": "function"
    },
    {
      "inputs": [
        {
          "internalType": "address",
          "name": "account",
          "type": "address"
        },
        {
          "internalType": "uint256",
          "name": "id",
          "type": "uint256"
        }
      ],
      "name": "balanceOf",
      "outputs": [
        {
          "internalType": "uint256",
          "name": "",
          "type": "uint256"
        }
      ],
      "stateMutability": "view",
      "type": "function"
    },
    {
      "inputs": [
        {
          "internalType": "address[]",
          "name": "accounts",
          "type": "address[]"
        },
        {
          "internalType": "uint256[]",
          "name": "ids",
          "type": "uint256[]"
        }
      ],
      "name": "balanceOfBatch",
      "outputs": [
        {
          "internalType": "uint256[]",
          "name": "",
          "type": "uint256[]"
        }
      ],
      "stateMutability": "view",
      "type": "function"
    },
    {
      "inputs": [],
      "name": "baseURI",
      "outputs": [
        {
          "internalType": "string",
          "name": "",
          "type": "string"
        }
      ],
      "stateMutability": "view",
      "type": "function"
    },
    {
      "inputs": [],
      "name": "currentIndex",
      "outputs": [
        {
          "internalType": "uint256",
          "name": "",
          "type": "uint256"
        }
      ],
      "stateMutability": "view",
      "type": "function"
    },
    {
      "inputs": [
        {
          "internalType": "address",
          "name": "account",
          "type": "address"
        },
        {
          "internalType": "address",
          "name": "operator",
          "type": "address"
        }
      ],
      "name": "isApprovedForAll",
      "outputs": [
        {
          "internalType": "bool",
          "name": "",
          "type": "bool"
        }
      ],
      "stateMutability": "view",
      "type": "function"
    },
    {
      "inputs": [],
      "name": "isSaleActive",
      "outputs": [
        {
          "internalType": "bool",
          "name": "",
          "type": "bool"
        }
      ],
      "stateMutability": "view",
      "type": "function"
    },
    {
      "inputs": [
        {
          "internalType": "uint256",
          "name": "_amount",
          "type": "uint256"
        }
      ],
      "name": "mint",
      "outputs": [],
      "stateMutability": "payable",
      "type": "function"
    },
    {
      "inputs": [],
      "name": "name",
      "outputs": [
        {
          "internalType": "string",
          "name": "",
          "type": "string"
        }
      ],
      "stateMutability": "view",
      "type": "function"
    },
    {
      "inputs": [],
      "name": "owner",
      "outputs": [
        {
          "internalType": "address",
          "name": "",
          "type": "address"
        }
      ],
      "stateMutability": "view",
      "type": "function"
    },
    {
      "inputs": [],
      "name": "renounceOwnership",
      "outputs": [],
      "stateMutability": "nonpayable",
      "type": "function"
    },
    {
      "inputs": [
        {
          "internalType": "address",
          "name": "from",
          "type": "address"
        },
        {
          "internalType": "address",
          "name": "to",
          "type": "address"
        },
        {
          "internalType": "uint256[]",
          "name": "ids",
          "type": "uint256[]"
        },
        {
          "internalType": "uint256[]",
          "name": "amounts",
          "type": "uint256[]"
        },
        {
          "internalType": "bytes",
          "name": "data",
          "type": "bytes"
        }
      ],
      "name": "safeBatchTransferFrom",
      "outputs": [],
      "stateMutability": "nonpayable",
      "type": "function"
    },
    {
      "inputs": [
        {
          "internalType": "address",
          "name": "from",
          "type": "address"
        },
        {
          "internalType": "address",
          "name": "to",
          "type": "address"
        },
        {
          "internalType": "uint256",
          "name": "id",
          "type": "uint256"
        },
        {
          "internalType": "uint256",
          "name": "amount",
          "type": "uint256"
        },
        {
          "internalType": "bytes",
          "name": "data",
          "type": "bytes"
        }
      ],
      "name": "safeTransferFrom",
      "outputs": [],
      "stateMutability": "nonpayable",
      "type": "function"
    },
    {
      "inputs": [
        {
          "internalType": "address",
          "name": "operator",
          "type": "address"
        },
        {
          "internalType": "bool",
          "name": "approved",
          "type": "bool"
        }
      ],
      "name": "setApprovalForAll",
      "outputs": [],
      "stateMutability": "nonpayable",
      "type": "function"
    },
    {
      "inputs": [
        {
          "internalType": "bool",
          "name": "_status",
          "type": "bool"
        }
      ],
      "name": "setSale",
      "outputs": [],
      "stateMutability": "nonpayable",
      "type": "function"
    },
    {
      "inputs": [
        {
          "internalType": "string",
          "name": "newUri",
          "type": "string"
        }
      ],
      "name": "setURI",
      "outputs": [],
      "stateMutability": "nonpayable",
      "type": "function"
    },
    {
      "inputs": [
        {
          "internalType": "bytes4",
          "name": "interfaceId",
          "type": "bytes4"
        }
      ],
      "name": "supportsInterface",
      "outputs": [
        {
          "internalType": "bool",
          "name": "",
          "type": "bool"
        }
      ],
      "stateMutability": "view",
      "type": "function"
    },
    {
      "inputs": [],
      "name": "symbol",
      "outputs": [
        {
          "internalType": "string",
          "name": "",
          "type": "string"
        }
      ],
      "stateMutability": "view",
      "type": "function"
    },
    {
      "inputs": [
        {
          "internalType": "address",
          "name": "newOwner",
          "type": "address"
        }
      ],
      "name": "transferOwnership",
      "outputs": [],
      "stateMutability": "nonpayable",
      "type": "function"
    },
    {
      "inputs": [
        {
          "internalType": "uint256",
          "name": "_id",
          "type": "uint256"
        }
      ],
      "name": "uri",
      "outputs": [
        {
          "internalType": "string",
          "name": "",
          "type": "string"
        }
      ],
      "stateMutability": "view",
      "type": "function"
    },
    {
      "inputs": [],
      "name": "withdraw",
      "outputs": [],
      "stateMutability": "nonpayable",
      "type": "function"
    }
  ],
  "bytecode": "0x600160045560c06040526009608081905268506f6c796e69616e7360b81b60a090815262000032916103ee919062000132565b506040805180820190915260038082526228262760e91b602090920191825262000060916103ef9162000132565b503480156200006e57600080fd5b50604051620024c4380380620024c48339810160408190526200009191620001d8565b806200009d81620000c7565b50620000a933620000e0565b8051620000bf906103f090602084019062000132565b505062000301565b8051620000dc90600290602084019062000132565b5050565b600380546001600160a01b038381166001600160a01b0319831681179093556040519116919082907f8be0079c531659141344cd1fd0a4f28419497f9722a3daafe3b4186f6b6457e090600090a35050565b8280546200014090620002ae565b90600052602060002090601f016020900481019282620001645760008555620001af565b82601f106200017f57805160ff1916838001178555620001af565b82800160010185558215620001af579182015b82811115620001af57825182559160200191906001019062000192565b50620001bd929150620001c1565b5090565b5b80821115620001bd5760008155600101620001c2565b60006020808385031215620001eb578182fd5b82516001600160401b038082111562000202578384fd5b818501915085601f83011262000216578384fd5b8151818111156200022b576200022b620002eb565b604051601f8201601f19908116603f01168101908382118183101715620002565762000256620002eb565b8160405282815288868487010111156200026e578687fd5b8693505b8284101562000291578484018601518185018701529285019262000272565b82841115620002a257868684830101525b98975050505050505050565b600181811c90821680620002c357607f821691505b60208210811415620002e557634e487b7160e01b600052602260045260246000fd5b50919050565b634e487b7160e01b600052604160045260246000fd5b6121b380620003116000396000f3fe60806040526004361061017f5760003560e01c80636c0360eb116100d6578063a0712d681161007f578063e985e9c511610059578063e985e9c5146103de578063f242432a14610427578063f2fde38b1461044757600080fd5b8063a0712d6814610396578063a22cb465146103a9578063c996adde146103c957600080fd5b80638d859f3e116100b05780638d859f3e1461033d5780638da5cb5b1461035957806395d89b411461038157600080fd5b80636c0360eb146102fd578063715018a61461031257806382d5b2491461032757600080fd5b80631d2e5a3a116101385780633ccfd60b116101125780633ccfd60b146102a15780634e1273f4146102b6578063564566a8146102e357600080fd5b80631d2e5a3a1461024b57806326987b601461026b5780632eb2c2d61461028157600080fd5b806302fe53051161016957806302fe5305146101e757806306fdde03146102095780630e89341c1461022b57600080fd5b8062fdd58e1461018457806301ffc9a7146101b7575b600080fd5b34801561019057600080fd5b506101a461019f366004611c6e565b610467565b6040519081526020015b60405180910390f35b3480156101c357600080fd5b506101d76101d2366004611d72565b61058b565b60405190151581526020016101ae565b3480156101f357600080fd5b50610207610202366004611db2565b610670565b005b34801561021557600080fd5b5061021e6106e2565b6040516101ae9190611fb7565b34801561023757600080fd5b5061021e610246366004611e3f565b610771565b34801561025757600080fd5b50610207610266366004611d58565b610803565b34801561027757600080fd5b506101a460045481565b34801561028d57600080fd5b5061020761029c366004611b35565b6108a4565b3480156102ad57600080fd5b50610207610c6e565b3480156102c257600080fd5b506102d66102d1366004611c97565b610d7f565b6040516101ae9190611f7f565b3480156102ef57600080fd5b506005546101d79060ff1681565b34801561030957600080fd5b5061021e610ef5565b34801561031e57600080fd5b50610207610f03565b34801561033357600080fd5b506101a46103e981565b34801561034957600080fd5b506101a4671bc16d674ec8000081565b34801561036557600080fd5b506003546040516001600160a01b0390911681526020016101ae565b34801561038d57600080fd5b5061021e610f69565b6102076103a4366004611e3f565b610f77565b3480156103b557600080fd5b506102076103c4366004611c45565b611314565b3480156103d557600080fd5b506101a4600681565b3480156103ea57600080fd5b506101d76103f9366004611b03565b6001600160a01b03918216600090815260016020908152604080832093909416825291909152205460ff1690565b34801561043357600080fd5b50610207610442366004611be1565b61131f565b34801561045357600080fd5b50610207610462366004611ae2565b6115de565b60006001600160a01b0383166104ea5760405162461bcd60e51b815260206004820152602b60248201527f455243313135353a2062616c616e636520717565727920666f7220746865207a60448201527f65726f206164647265737300000000000000000000000000000000000000000060648201526084015b60405180910390fd5b6103e9821061053b5760405162461bcd60e51b815260206004820152601b60248201527f455243313135353a2069642065786365656473206d6178696d756d000000000060448201526064016104e1565b826001600160a01b03166006836103e8811061056757634e487b7160e01b600052603260045260246000fd5b01546001600160a01b03161461057e576000610581565b60015b60ff169392505050565b60007fffffffff0000000000000000000000000000000000000000000000000000000082167fd9b67a2600000000000000000000000000000000000000000000000000000000148061061e57507fffffffff0000000000000000000000000000000000000000000000000000000082167f0e89341c00000000000000000000000000000000000000000000000000000000145b8061066a57507f01ffc9a7000000000000000000000000000000000000000000000000000000007fffffffff000000000000000000000000000000000000000000000000000000008316145b92915050565b6003546001600160a01b031633146106ca5760405162461bcd60e51b815260206004820181905260248201527f4f776e61626c653a2063616c6c6572206973206e6f7420746865206f776e657260448201526064016104e1565b80516106de906103f0906020840190611967565b5050565b6103ee80546106f0906120d1565b80601f016020809104026020016040519081016040528092919081815260200182805461071c906120d1565b80156107695780601f1061073e57610100808354040283529160200191610769565b820191906000526020600020905b81548152906001019060200180831161074c57829003601f168201915b505050505081565b60606103e9821080156107845750600082115b6107d05760405162461bcd60e51b815260206004820152600a60248201527f696e76616c69642069640000000000000000000000000000000000000000000060448201526064016104e1565b6103f06107dc836116bd565b6040516020016107ed929190611ead565b6040516020818303038152906040529050919050565b6003546001600160a01b0316331461085d5760405162461bcd60e51b815260206004820181905260248201527f4f776e61626c653a2063616c6c6572206973206e6f7420746865206f776e657260448201526064016104e1565b6005805460ff19168215159081179091556040519081527f983ddb545d426c96b234b2d8557764ed3f54b4ab9b24ee0ad008d4852719fab79060200160405180910390a150565b6001600160a01b0386163314806108c057506108c086336103f9565b6109325760405162461bcd60e51b815260206004820152602960248201527f455243313135353a2063616c6c6572206973206e6f74206f776e6572206e6f7260448201527f20617070726f766564000000000000000000000000000000000000000000000060648201526084016104e1565b6001600160a01b0385166109ae5760405162461bcd60e51b815260206004820152602560248201527f455243313135353a207472616e7366657220746f20746865207a65726f20616460448201527f647265737300000000000000000000000000000000000000000000000000000060648201526084016104e1565b8251845114610a255760405162461bcd60e51b815260206004820152602860248201527f455243313135353a2069647320616e6420616d6f756e7473206c656e6774682060448201527f6d69736d6174636800000000000000000000000000000000000000000000000060648201526084016104e1565b60005b8451811015610c0e576000858281518110610a5357634e487b7160e01b600052603260045260246000fd5b602002602001015190506000858381518110610a7f57634e487b7160e01b600052603260045260246000fd5b6020026020010151905080600114610aff5760405162461bcd60e51b815260206004820152603c60248201527f746869732069732061204e465420636f6e74726163742c20746865726520697360448201527f206f6e6c79206f6e6520636f7079206f6620656163682061737365740000000060648201526084016104e1565b60006006836103e88110610b2357634e487b7160e01b600052603260045260246000fd5b01546001600160a01b0390811691508a168114610ba85760405162461bcd60e51b815260206004820152603060248201527f455243313135353a207468652073656e646572206973206e6f7420746865206f60448201527f776e6572206f662074686973204e46540000000000000000000000000000000060648201526084016104e1565b886006846103e88110610bcb57634e487b7160e01b600052603260045260246000fd5b01805473ffffffffffffffffffffffffffffffffffffffff19166001600160a01b039290921691909117905550829150610c0690508161210c565b915050610a28565b50846001600160a01b0316866001600160a01b0316336001600160a01b03167f4a39dc06d4c0dbc64b70af90fd698a233a518aa5d07e595d983b8c0526c8f7fb8787604051610c5e929190611f92565b60405180910390a4505050505050565b6003546001600160a01b03163314610cc85760405162461bcd60e51b815260206004820181905260248201527f4f776e61626c653a2063616c6c6572206973206e6f7420746865206f776e657260448201526064016104e1565b6000610cdc6003546001600160a01b031690565b6001600160a01b03164760405160006040518083038185875af1925050503d8060008114610d26576040519150601f19603f3d011682016040523d82523d6000602084013e610d2b565b606091505b5050905080610d7c5760405162461bcd60e51b815260206004820152601460248201527f746865207769746864726177206661696c65642100000000000000000000000060448201526064016104e1565b50565b60608151835114610df85760405162461bcd60e51b815260206004820152602960248201527f455243313135353a206163636f756e747320616e6420696473206c656e67746860448201527f206d69736d61746368000000000000000000000000000000000000000000000060648201526084016104e1565b6000835167ffffffffffffffff811115610e2257634e487b7160e01b600052604160045260246000fd5b604051908082528060200260200182016040528015610e4b578160200160208202803683370190505b50905060005b8451811015610eed57610eb2858281518110610e7d57634e487b7160e01b600052603260045260246000fd5b6020026020010151858381518110610ea557634e487b7160e01b600052603260045260246000fd5b6020026020010151610467565b828281518110610ed257634e487b7160e01b600052603260045260246000fd5b6020908102919091010152610ee68161210c565b9050610e51565b509392505050565b6103f080546106f0906120d1565b6003546001600160a01b03163314610f5d5760405162461bcd60e51b815260206004820181905260248201527f4f776e61626c653a2063616c6c6572206973206e6f7420746865206f776e657260448201526064016104e1565b610f676000611813565b565b6103ef80546106f0906120d1565b600454671bc16d674ec8000033328114610fd35760405162461bcd60e51b815260206004820152600960248201527f6f6e6c7920454f4173000000000000000000000000000000000000000000000060448201526064016104e1565b60055460ff166110255760405162461bcd60e51b815260206004820152600b60248201527f53616c6520636c6f73656400000000000000000000000000000000000000000060448201526064016104e1565b6103e96001611034868661203f565b61103e919061208a565b1061108b5760405162461bcd60e51b815260206004820152600e60248201527f416c6c20617265206d696e74656400000000000000000000000000000000000060448201526064016104e1565b60008411801561109b5750600684105b6110e75760405162461bcd60e51b815260206004820152600b60248201527f6d696e2035206d6178203500000000000000000000000000000000000000000060448201526064016104e1565b6110f1828561206b565b341461113f5760405162461bcd60e51b815260206004820152600b60248201527f77726f6e6720707269636500000000000000000000000000000000000000000060448201526064016104e1565b60018411156112be5760008467ffffffffffffffff81111561117157634e487b7160e01b600052604160045260246000fd5b60405190808252806020026020018201604052801561119a578160200160208202803683370190505b50905060008567ffffffffffffffff8111156111c657634e487b7160e01b600052604160045260246000fd5b6040519080825280602002602001820160405280156111ef578160200160208202803683370190505b50905060005b86811015611275578386600601558583828151811061122457634e487b7160e01b600052603260045260246000fd5b602002602001018181525050600182828151811061125257634e487b7160e01b600052603260045260246000fd5b60209081029190910101526001909501948061126d8161210c565b9150506111f5565b50604051339060009082907f4a39dc06d4c0dbc64b70af90fd698a233a518aa5d07e595d983b8c0526c8f7fb906112af9087908790611f92565b60405180910390a4505061130c565b600683018190556040805184815260016020820152339160009183917fc3d58168c5ae7397731d063d5bbf3d657854427343f4c083240f7aacaa2d0f62910160405180910390a46001909201915b505060045550565b6106de338383611872565b6001600160a01b03861633148061133b575061133b86336103f9565b6113ad5760405162461bcd60e51b815260206004820152602960248201527f455243313135353a2063616c6c6572206973206e6f74206f776e6572206e6f7260448201527f20617070726f766564000000000000000000000000000000000000000000000060648201526084016104e1565b6001600160a01b0385166114295760405162461bcd60e51b815260206004820152602560248201527f455243313135353a207472616e7366657220746f20746865207a65726f20616460448201527f647265737300000000000000000000000000000000000000000000000000000060648201526084016104e1565b8260011461149f5760405162461bcd60e51b815260206004820152603c60248201527f746869732069732061204e465420636f6e74726163742c20746865726520697360448201527f206f6e6c79206f6e6520636f7079206f6620656163682061737365740000000060648201526084016104e1565b60006006856103e881106114c357634e487b7160e01b600052603260045260246000fd5b01546001600160a01b039081169150871681146115485760405162461bcd60e51b815260206004820152603060248201527f455243313135353a207468652073656e646572206973206e6f7420746865206f60448201527f776e6572206f662074686973204e46540000000000000000000000000000000060648201526084016104e1565b856006866103e8811061156b57634e487b7160e01b600052603260045260246000fd5b01805473ffffffffffffffffffffffffffffffffffffffff19166001600160a01b039283161790556040805187815260016020820152888316928a169133917fc3d58168c5ae7397731d063d5bbf3d657854427343f4c083240f7aacaa2d0f62910160405180910390a450505050505050565b6003546001600160a01b031633146116385760405162461bcd60e51b815260206004820181905260248201527f4f776e61626c653a2063616c6c6572206973206e6f7420746865206f776e657260448201526064016104e1565b6001600160a01b0381166116b45760405162461bcd60e51b815260206004820152602660248201527f4f776e61626c653a206e6577206f776e657220697320746865207a65726f206160448201527f646472657373000000000000000000000000000000000000000000000000000060648201526084016104e1565b610d7c81611813565b6060816116fd57505060408051808201909152600181527f3000000000000000000000000000000000000000000000000000000000000000602082015290565b8160005b811561172757806117118161210c565b91506117209050600a83612057565b9150611701565b60008167ffffffffffffffff81111561175057634e487b7160e01b600052604160045260246000fd5b6040519080825280601f01601f19166020018201604052801561177a576020820181803683370190505b5090505b841561180b5761178f60018361208a565b915061179c600a86612127565b6117a790603061203f565b60f81b8183815181106117ca57634e487b7160e01b600052603260045260246000fd5b60200101907effffffffffffffffffffffffffffffffffffffffffffffffffffffffffffff1916908160001a905350611804600a86612057565b945061177e565b949350505050565b600380546001600160a01b0383811673ffffffffffffffffffffffffffffffffffffffff19831681179093556040519116919082907f8be0079c531659141344cd1fd0a4f28419497f9722a3daafe3b4186f6b6457e090600090a35050565b816001600160a01b0316836001600160a01b031614156118fa5760405162461bcd60e51b815260206004820152602960248201527f455243313135353a2073657474696e6720617070726f76616c2073746174757360448201527f20666f722073656c66000000000000000000000000000000000000000000000060648201526084016104e1565b6001600160a01b03838116600081815260016020908152604080832094871680845294825291829020805460ff191686151590811790915591519182527f17307eab39ab6107e8899845ad3d59bd9653f200f220920489ca2b5937696c31910160405180910390a3505050565b828054611973906120d1565b90600052602060002090601f01602090048101928261199557600085556119db565b82601f106119ae57805160ff19168380011785556119db565b828001600101855582156119db579182015b828111156119db5782518255916020019190600101906119c0565b506119e79291506119eb565b5090565b5b808211156119e757600081556001016119ec565b80356001600160a01b0381168114611a1757600080fd5b919050565b600082601f830112611a2c578081fd5b81356020611a41611a3c8361201b565b611fea565b80838252828201915082860187848660051b8901011115611a60578586fd5b855b85811015611a7e57813584529284019290840190600101611a62565b5090979650505050505050565b80358015158114611a1757600080fd5b60008083601f840112611aac578182fd5b50813567ffffffffffffffff811115611ac3578182fd5b602083019150836020828501011115611adb57600080fd5b9250929050565b600060208284031215611af3578081fd5b611afc82611a00565b9392505050565b60008060408385031215611b15578081fd5b611b1e83611a00565b9150611b2c60208401611a00565b90509250929050565b60008060008060008060a08789031215611b4d578182fd5b611b5687611a00565b9550611b6460208801611a00565b9450604087013567ffffffffffffffff80821115611b80578384fd5b611b8c8a838b01611a1c565b95506060890135915080821115611ba1578384fd5b611bad8a838b01611a1c565b94506080890135915080821115611bc2578384fd5b50611bcf89828a01611a9b565b979a9699509497509295939492505050565b60008060008060008060a08789031215611bf9578182fd5b611c0287611a00565b9550611c1060208801611a00565b94506040870135935060608701359250608087013567ffffffffffffffff811115611c39578283fd5b611bcf89828a01611a9b565b60008060408385031215611c57578182fd5b611c6083611a00565b9150611b2c60208401611a8b565b60008060408385031215611c80578182fd5b611c8983611a00565b946020939093013593505050565b60008060408385031215611ca9578182fd5b823567ffffffffffffffff80821115611cc0578384fd5b818501915085601f830112611cd3578384fd5b81356020611ce3611a3c8361201b565b8083825282820191508286018a848660051b8901011115611d02578889fd5b8896505b84871015611d2b57611d1781611a00565b835260019690960195918301918301611d06565b5096505086013592505080821115611d41578283fd5b50611d4e85828601611a1c565b9150509250929050565b600060208284031215611d69578081fd5b611afc82611a8b565b600060208284031215611d83578081fd5b81357fffffffff0000000000000000000000000000000000000000000000000000000081168114611afc578182fd5b60006020808385031215611dc4578182fd5b823567ffffffffffffffff80821115611ddb578384fd5b818501915085601f830112611dee578384fd5b813581811115611e0057611e00612167565b611e1284601f19601f84011601611fea565b91508082528684828501011115611e27578485fd5b80848401858401378101909201929092529392505050565b600060208284031215611e50578081fd5b5035919050565b6000815180845260208085019450808401835b83811015611e8657815187529582019590820190600101611e6a565b509495945050505050565b60008151611ea38185602086016120a1565b9290920192915050565b600080845482600182811c915080831680611ec957607f831692505b6020808410821415611ee957634e487b7160e01b87526022600452602487fd5b818015611efd5760018114611f0e57611f3a565b60ff19861689528489019650611f3a565b60008b815260209020885b86811015611f325781548b820152908501908301611f19565b505084890196505b505050505050611f76611f4d8286611e91565b7f2e6a736f6e000000000000000000000000000000000000000000000000000000815260050190565b95945050505050565b602081526000611afc6020830184611e57565b604081526000611fa56040830185611e57565b8281036020840152611f768185611e57565b6020815260008251806020840152611fd68160408501602087016120a1565b601f01601f19169190910160400192915050565b604051601f8201601f1916810167ffffffffffffffff8111828210171561201357612013612167565b604052919050565b600067ffffffffffffffff82111561203557612035612167565b5060051b60200190565b600082198211156120525761205261213b565b500190565b60008261206657612066612151565b500490565b60008160001904831182151516156120855761208561213b565b500290565b60008282101561209c5761209c61213b565b500390565b60005b838110156120bc5781810151838201526020016120a4565b838111156120cb576000848401525b50505050565b600181811c908216806120e557607f821691505b6020821081141561210657634e487b7160e01b600052602260045260246000fd5b50919050565b60006000198214156121205761212061213b565b5060010190565b60008261213657612136612151565b500690565b634e487b7160e01b600052601160045260246000fd5b634e487b7160e01b600052601260045260246000fd5b634e487b7160e01b600052604160045260246000fdfea2646970667358221220ac107dae4c6724f09fa6599defd1f72b6f1e2849d5828d8e3621e913ac2c29c664736f6c63430008040033",
  "linkReferences": {},
  "deployedLinkReferences": {}
}